:020000040800F2
:100000009843002001010008C1320008A120000827
:1000100079320008F910000801970008000000007C
:10002000000000000000000000000000A5720008B1
:100030007D110008000000005F100008BD8A000864
:100040001B0100081B0100081B0100081B01000820
:100050001B0100081B0100081B0100081B01000810
:100060001B0100081B0100081B0100081B01000800
:100070001B0100081B0100081B0100081B010008F0
:100080001B0100081B0100081B0100081B010008E0
:100090001B0100081B0100081B0100081B010008D0
:1000A0001B0100081B0100081B0100081B010008C0
:1000B0000D8E0008098F00083D8F00081B01000805
:1000C0001B0100081B0100081B0100081B010008A0
:1000D0001B010008B9940008259500081B010008C1
:1000E0001B0100081B0100081B010008DFF80CD0F1
:1000F00000F028FD0048004725B70008984300207D
:100100000648804706480047FEE7FEE7FEE7FEE7B1
:10011000FEE7FEE7FEE7FEE7FEE7FEE7DD8A000812
:10012000ED00000872B6704762B67047EFF31080BA
:1001300072B6704780F31088704730BF704720BF99
:100140007047B0FA80F0704790FAA0F0B0FA80F0F3
:10015000704790FAA0F070472DE9F05F0546002047
:1001600092469B4688460646814640241BE0284628
:1001700041464746224600F0B0FB53465A46C01A55
:10018000914110D311461846224600F097FB2D1AD4
:1001900067EB01084F4622460120002100F08EFB4C
:1001A00017EB00094E41201EA4F10104DFDC484694
:1001B00031462A464346BDE8F09F2DE9F041002430
:1001C000061B254671F1000605DA01240027D0EB55
:1001D000070067EB0101161E73F1000605DA002720
:1001E000D2EB0702012567EB0303FFF7B5FF864655
:1001F0000E4617469C46AC4204D00025D0EB050EB7
:1002000065EB010624B10020D2EB000760EB030C84
:10021000704631463A466346BDE8F081D2B201E00D
:1002200000F8012B491EFBD270470022F6E710B5FB
:1002300013460A4604461946FFF7F0FF204610BD54
:1002400030B504460020034600E05B1C934203D215
:10025000E05CCD5C401BF8D030BD034611F8012BAB
:1002600000F8012B002AF9D118467047F0B480EA53
:100270000102D40F4200B2EB410F02D202460846FF
:1002800011464A0042D0C30DDDB2C1F3C752AD1AC8
:10029000202D35DAC1F3160141F4000204B15242B7
:1002A000C5F1200602FA06F12A411044B3EBD05FF3
:1002B00023D0C4B1012DA0EBC35009DCF0BC4FF03A
:1002C000004202EAC352DBB200F5000000F07FBB3F
:1002D000400000F1807000EBC350A0F1807040EA54
:1002E000D170490009E0490841EAC071A0EBC35050
:1002F00000F50000400800EBC350F0BC00F05EBB0E
:100300006142012202EB4101001BF6E7F0BC70479D
:1003100081F00041AAE780F00040A7E780EA0102EF
:1003200010B502F00043400022D04A001FD0010E59
:1003300001EB1261C0F35600C2F3560240F4000014
:1003400042F40002A0FB022000047F39140400D014
:10035000401C50EA124001D44000491EC2B20C06B3
:1003600004EBD010401C4008802A02D003E000209B
:1003700010BD20F00100002900DA0020184310BD54
:1003800030B480EA010202F0004530F0004221F072
:10039000004013D090B1C30DD40DC2F31601C0F3C9
:1003A0001600E41A41F4000140F400027D34914249
:1003B00001D3641C00E04900002C02DA30BC0020AC
:1003C00070474FF400000023914201D3891A034380
:1003D00040084FEA4101F7D151B1914202D14FF0AB
:1003E000004105E002D24FF0010101E06FF0010190
:1003F00003EBC450284430BC00F0E0BA420005D002
:10040000C0F3C7525242914201DC0020704700EB1A
:10041000C15070472DE9FE4F804681EA0300C00FAE
:100420000C46009021F0004123F00045B8EB02009B
:10043000A94105D24046214690461C460B4602463D
:1004400023F00040104347D0270DC7F30A00C3F341
:100450000A510290401A019040286BDAC3F313004E
:1004600040F4801B0098924620B10023D2EB030A8F
:1004700063EB0B0B01985946C0F14002504600F067
:100480001DFA06460D4650465946019A00F035FAC7
:1004900010EB08006141002487EA115284EAE773F7
:1004A0001A4340D0009A62B3019A012A4FEA0752D8
:1004B00015DC001B61EB02014FF0004202EA07521B
:1004C000CDE90042001C41F5801132462B4600F078
:1004D000BBFA03B0BDE8F08F40462146F9E7001BA8
:1004E00061EB0201001C41F5801300185B412018EC
:1004F000A2F5001747EB030140EAD570B6196D412C
:1005000011E06D084FEA360645EAC0754FEA07521A
:10051000001B61EB0201001C41F5801149084FEA04
:1005200030000019514132462B4603B0BDE8F04F70
:1005300000F07BBA0098012240000023D0EB0202B9
:1005400063EBE073009821464FEAE074B8EB0000DB
:1005500061EB0401E9E783F000435BE781F00041D0
:1005600058E72DE9FE4F81EA030404F0004421F02E
:10057000004100944FF0000B23F0004350EA0104C7
:100580005ED052EA03045BD0C3F30A54C1F30A55A8
:100590002C44A4F2F3340194A0FB0254C1F31301E0
:1005A00041F48011C3F3130343F4801301FB0244AD
:1005B00000FB034E840A970A44EA815447EA8357B2
:1005C000A4FB076802958D0A05FB07854FEA932C6B
:1005D00004FB0C542705029D4FEA065847EA1637DC
:1005E000B5EB08056EEB070C870E920E47EA8117F4
:1005F00042EA8312A7FB0201B6EB0B0164EB000495
:100600002B0D43EA0C335E1844EB1C50DA4651467E
:10061000E7FB0201C5F313044FEA0B3343EA14531B
:100620004FEA0432019C43EA0603A4F10C0402944D
:10063000009CCDE900B400F007FA03B0BDE8F08FEC
:1006400000200146F9E72DE9F04D81EA030404F0AA
:10065000004B21F0004514464FF0000A23F0004102
:1006600050EA050220D054EA01021DD0C5F30A5712
:100670000246C5F31303C1F31300C1F30A5640F455
:10068000801543F48013A7EB0608101BD64608F22A
:10069000FD3873EB050002D308F1010801E0921860
:1006A0005B41B8F1000F03DA00200146BDE8F08D90
:1006B00000204FF48011064684460EE0171B73EBB2
:1006C000050705D3121B63EB050306434CEA010C37
:1006D00049084FEA300092185B4150EA0107EDD11A
:1006E00052EA030012D082EA040083EA05010843BB
:1006F00005D0101BAB4106D20122002306E00022E8
:100700004FF0004302E06FF0010253101AEB0600B5
:100710004CEB085110EB0A0041EB0B01BDE8F04D2A
:1007200000F083B9C10F80EAE0700844CA0796233D
:10073000002100F04CB996230022114600F047B981
:100740000EB5C10F80EAE0700844CA07002140F2EC
:1007500033438DE80E000A460B4600F075F903B0EE
:1007600000BD00F0004220F00040C10DC0F31600B3
:1007700040F400007F2901DA00207047962903DC4D
:10078000C1F19601C84001E096398840002AF4D0B2
:100790004042704720F00040C10DC0F3160040F405
:1007A00000007F2901DA00207047962903DCC1F19F
:1007B0009601C840704796398840704700F0004263
:1007C00030F000400AD0C10D01F56071C0F3160091
:1007D00042EA0151C2084007114370470020014618
:1007E0007047000030B5041E71F1000404DB4FF0C7
:1007F0000044404264EB0101141E73F1000405DB68
:100800001C464FF00043524263EB04038B4208BF87
:10081000824230BD30B5041E71F1000404DB4FF09C
:100820000044404264EB0101141E73F1000405DB37
:100830001C464FF00043524263EB0403994208BF49
:10084000904230BD01F0004330B421F0004150EA45
:10085000010206D00A0DA2F56072C1F31301002A4D
:1008600002DC30BC00207047440F44EAC104C100E0
:10087000E01830BC00EBC25000F0A0B8002801DB4B
:10088000C0F10040002901DBC1F100418142704705
:1008900030B50B46014600202022012409E021FA50
:1008A00002F59D4205D303FA02F5491B04FA02F54D
:1008B0002844151EA2F10102F1DC30BD202A04DB20
:1008C000203A00FA02F1002070479140C2F1200363
:1008D00020FA03F3194390407047202A04DB203AA2
:1008E00021FA02F00021704721FA02F3D040C2F150
:1008F00020029140084319467047202A06DBCB1797
:10090000203A41FA02F043EAE07306E041FA02F3CA
:10091000D040C2F1200291400843194670470000C0
:100920000FB4002300B589B00CA900910B996FF0AA
:100930000042CB601E4B06931E4B07930423CDE968
:1009400001321D4A089202466B46002000F092F9DF
:1009500009B05DF814FB70B586B006464FF0FF3065
:100960000091CDE90101002015460C460490324665
:10097000694604A8FFF7D4FF03460498211825B15F
:1009800008B10A4600E022462A6000280DD0002B5C
:1009900002DD0098884208D0081B0094CDE90104CC
:1009A0003246694604A8FFF7BBFF06B070BD0000E1
:1009B000AD0E0008CB0E0008690B00080029A8BF87
:1009C0007047401C490008BF20F00100704710B478
:1009D000B0FA80FC00FA0CF050EA010404BF10BC2D
:1009E000704749B1CCF1200421FA04F411FA0CF15A
:1009F00018BF012121430843A3EB0C01CB1D4FEA93
:100A000000614FEA102042BF002010BC704700EB8D
:100A1000C35010440029A4BF10BC7047401C4900BB
:100A200008BF20F0010010BC704710B5141E73F110
:100A3000000408DA401C41F1000192185B411A439E
:100A400001D120F0010010BD2DE9F04D92469B46EA
:100A500011B1B1FA81F202E0B0FA80F22032904690
:100A6000FFF72CFF04460F4640EA0A0041EA0B015B
:100A700053465A46084313D0114653EA010019D091
:100A8000C8F140025046FFF728FF05460E46504683
:100A900059464246FFF712FF084305D0012004E003
:100AA00020463946BDE8F08D0020054346EAE07651
:100AB0002C4337430A986305E40AA0EB08000022A0
:100AC000FD0A44EA47540A3002D500200146E9E70E
:100AD000010510196941DDE9084500196941BDE8C2
:100AE000F04DA2E770B521F0004303430CD0C1F3F1
:100AF0000A550024D5EB040564EB0403D617AD1AA0
:100B0000B34102DB0020014670BD201841EB0251C9
:100B100070BDC1F30A52C1F3130140F2FF3341F437
:100B200080119A4202DA00200146704740F23343B6
:100B30009A42A2F2334202DC5242FFF7CEBEFFF7E6
:100B4000BDBE0000064C074D06E0E06840F0010322
:100B500094E8070098471034AC42F6D3FFF7CAFA7E
:100B6000F0F2000810F30008C0B24FF4F05100F0AA
:100B70000FBA00002DE9FF4F087881B09946FF2891
:100B800005D0491C2D2804D00024002308E00023B0
:100B90000BE00124F9E703EB830300EB4303491C5B
:100BA0000878FF28F7D104B15B4200200090147848
:100BB00001462D2C01D02B2C04D1521C2D2C12D0EF
:100BC0000024009400251678FF2E0ED00A24A0FBE6
:100BD00004C801FB0481002700FB0711521C16EB1F
:100BE0000C006941EFE70124EBE7994450EA010268
:100BF0000ED00024AA4D2646DFF8A88200F0DCF9CA
:100C000082468B46B9F1000009DAC9F100071BE002
:100C100001980021C0E9001105B0BDE8F08F07463A
:100C200012E0F80707D022462B4630464146FFF730
:100C300098FC0646884622462B4610461946FFF782
:100C400090FC04460D467F10002FEAD1B9F1000F49
:100C5000324643465046594602DAFFF7F4FC01E0BB
:100C6000FFF77FFC009A0AB181F00041019AC2E9C6
:100C70000001D1E72DE9FF4F1F468DB0D7E90146AE
:100C80004FF0FF382E2045464FF000090B90B96910
:100C90006D1C0E988847396A824688470028F6D12D
:100CA000BAF1FF3F0AD024F4D064002E11DDBAF16E
:100CB0002B0F08D0BAF12D0F0BD102E0404611B036
:100CC000ABE744F48064B9696D1C0E98884782468E
:100CD000761E6946600501D52D2000E02B208DF899
:100CE000000001F1010B0DF1200809E0B9696D1C4C
:100CF0000E98884782460F9844F40074761E05606B
:100D0000002E02DDBAF1300FF0D00B998A453ED1AA
:100D100044F0800406E00F99681CA9F1010944F42D
:100D200000740860B9696D1C761E0E98884782466B
:100D30003028F0D02BE00B998A4505D1200603D44A
:100D400044F08004761E18E0504608F049FE08B3CF
:100D50000DF11301761E44F400748B4508D2AAF1FC
:100D600030000BF8010B200607D5A9F1010003E0C4
:100D7000200602D409F101008146A00502D50F9991
:100D8000681C0860B9696D1C0E9888478246002E61
:100D9000D1DC53E0002E51DDBAF1650F02D0BAF17B
:100DA000450F4BD1A00549D5B9696D1C24F4407499
:100DB000761E0E9888478246002E0CDD2B2804D024
:100DC000BAF12D0F07D144F48074B9696D1C0E98E7
:100DD00088478246761EE00501D52D2100E02B21B3
:100DE00008F8011BCDF82C8021E00DF12901761EB9
:100DF00044F4007488450CD2AAF1300010F0FF00D2
:100E000088F8000002D10B99884509D908F101083A
:100E100006E0E00501D5244801E042F20F7081466A
:100E2000B9696D1C0E98884782460F980560002EA0
:100E300004DD504608F0D4FD0028D6D1F9690E989B
:100E40008847FF208BF8000088F8000000200690FB
:100E500007904B466A4608A906A8FFF78BFEA00537
:100E600002D46FF001002AE714F0240F0AD0E00743
:100E700014D1DDE906123868031D3B600068C0E943
:100E800000120BE0DDE90601FFF7DCFC0146E0079C
:100E900004D13868021D3A600068016028460EE7F8
:100EA000000024400000F03FF1D8FFFF426842B14B
:100EB000016811F8013B23B1521EC0E90012184627
:100EC00070470121C160881E704742685AB1C368EB
:100ED000016843B983688B4205D0491E521CC0E9A2
:100EE0000012002070474FF0FF3070472DE9F04DA1
:100EF00000231A461B1A8A4103DB00200146BDE885
:100F0000F08DC1F30A52C1F3130141F480154FF083
:100F1000000BD10702D100186D41521E0027044674
:100F200040F2FF11384601EB620A3E468046024617
:100F300000204FF48011FFF7D0FCC2197141BB189B
:100F400046EB0100B4EB030C75EB000C04D3E41A80
:100F500065EB000517460E46241908F101006D41A6
:100F600080463428E3DDF91946EB0600091BA84149
:100F700003D24FF0FF32134601E0002213461BEB71
:100F8000070046EB0A51BDE8F04DFFF74EBD0000EB
:100F90007F2801D9002208E0064A02EB5002C00770
:100FA000127800D1120902F00F020120904008408F
:100FB0007047000060F200080EB540F23342029222
:100FC0000022CDE900221346FFF73EFD03B000BD2D
:100FD00070B58C1810F8015B15F0070301D110F8FB
:100FE000013B2A1106D110F8012B03E010F8016B28
:100FF00001F8016B5B1EF9D12B0705D40023521EAB
:101000000DD401F8013BFAE710F8013BCB1A921C12
:1010100003E013F8015B01F8015B521EF9D5A14210
:10102000D8D3002070BD00001D484FF6FF7101703D
:10103000002080F309881B48016881F308881A485A
:101040004FF08051016062B6FEE717484FF08051C3
:101050000160704714484FF080510160704772B6CC
:10106000EFF3098028B1203880E8F00F0F490968B4
:10107000086000B50E4880475DF804EB0D480E4946
:101080000A78027009480D490A680260106890E801
:10109000F00F203080F309884EF0040E62B67047DE
:1010A00022ED00E00401002004ED00E0FC0000203F
:1010B000F54900088E0000208F000020000100206C
:1010C0007CB501AA00230C46054600921A46194633
:1010D000044803F089F82C7001AA0021014803F0AC
:1010E00021F97CBD4C1E002000B585B0684605F096
:1010F00075FE019805B000BDFEE70000044910B57B
:101100000020086000F01CF8BDE8104000F002B8B4
:101110003400002010B5FFF709F8044610210448F8
:1011200002F0ABF82046BDE81040FFF703B800001E
:101130007C02002001490860704700003400002054
:1011400010B5FFF7D1FF08490A6842F080720A60C3
:10115000064900224A600A6842F001020A60BDE8BE
:101160001040FFF7E7BF0000FCED00E0001000E0DA
:101170000148406870470000001000E07047000020
:101180000EB53EA00BF05AFA00F030FE4FF47A7024
:1011900000F036FF00213E4807F0F6FEDFF8FC8045
:1011A0003C4CDFF8F4A0002708F108060DF108090F
:1011B0004FF4FA7B00F08CFBFEF7B8FF2178491C56
:1011C0002170FEF7B7FF3648827B417BCDE90012E4
:1011D000037BC27A817A008900F5FA6080B205F05B
:1011E000DDFE01212A4807F0CFFE00212D4808F03E
:1011F000EBF9FEF79BFF2178491E11F0FF012170EA
:1012000007D1BAF8001021B1FEF794FF04F05EFB9D
:1012100001E0FEF78FFF0025FEF788FF2178491CCB
:101220002170FEF787FF05F023FEFEF77FFF217890
:10123000491E11F0FF01217007D1BAF8001021B149
:10124000FEF778FF04F042FB01E0FEF773FFD8F8E9
:10125000041015A00BF0F2F9B3797279317916A068
:101260000BF0ECF90022CDE900795B4611461046FF
:1012700003F042FC002DCFD09CE7000047455454BA
:10128000494D4520207374617274200D0A000000DE
:1012900000040040A80000206C0000201C01002079
:1012A000243E00200044004054494D455F434F55C3
:1012B00054202564200D0A002575CAB1202575B774
:1012C000D6202575C3EB200D0A0000002DE9F04360
:1012D0000F46002A73D00C2A71D806888478C57806
:1012E000017990F8059090F806807BB38B18182B45
:1012F0006DD3183B012C16D0032C14D0052C12D022
:10130000072C10D0082C0ED00A2C0CD0042C0DD099
:10131000062C0BD0092C09D00B2C07D0022C0AD09C
:101320000C2C14D053E01F2D13D301E01E2D10D32D
:101330000125641C4BE01D2D05D01C2D09D1F0B2F8
:1013400001F09EF828B90125032440E007E01F2D95
:1013500001D26D1C3BE001252C46761C37E0914202
:10136000A1EB020333D21833022C16D0042C14D074
:10137000062C12D0082C10D0092C0ED00B2C0CD01F
:10138000052C0ED0072C0CD00A2C0AD00C2C08D01F
:10139000032C0BD0012C13D019E0012D12D81F25DE
:1013A00002E0012D0ED81E25641E10E0012D09D18A
:1013B000F0B201F065F828B91C25022407E00EE020
:1013C000012D01D96D1E02E01F250C24761E3E80E2
:1013D000BC70FD703B7187F8059087F80680BDE80A
:1013E000F083F0B5CC78002204F00F03E40601D5B9
:1013F0008C7823430C784FF00F0C14F0FF0F4FF054
:10140000010E1BD005680E880EFA02F42640A64293
:1014100010D196000CFA06F725EA070703FA06F53D
:10142000CE783D43282E02D0482E02D002E04461FF
:1014300000E00461521C082AE5D305600A88FF2AEF
:101440001CD94468002202F108060EFA06F50E883F
:101450002E40AE420ED196000CFA06F7BC4303FABA
:1014600006F7CE783C43282E00D14561CE78482E31
:1014700000D10561521C082AE5D34460F0BD01612A
:10148000704700002DE9F04F89B0142009F0D8F919
:10149000A84E30780128FCD1FEF748FEDFF898B25C
:1014A000A64FCBF804003978491C3970FEF742FE8C
:1014B000A3A00BF0C3F8A64CA64D0DF11008207F99
:1014C00085F82200E07DA37E627E217E88E80F0001
:1014D000E07CA37D627D217D8DE80F00A37C05F17A
:1014E000170014F8112F9CA1804608F01BF9607EAC
:1014F00085F83700207D0DF11409E37DA27D617D23
:1015000089E80F00207C0DF10409E37CA27C617C5A
:1015100089E80F00E07B009005F12B00A37B627B44
:1015200093A1824608F0FEF8404609F043F9DFF83F
:101530005882DFF8589242464B46FFF712F845F8BA
:101540000F0F5046696009F035F942464B46FFF7E8
:1015500008F845F8140F696094F8281094F82700EB
:10156000CDE900017B4894F82630473094F82520D7
:101570007CA18046233D08F0D5F8404609F01AF9D1
:10158000E8647448296538300F218046FEF74DFE27
:10159000E07E113C302824D07DA14046FEF75DFE60
:1015A00094F82E0094F82F10303800EB80026FF082
:1015B0002F0909EB4200084428700020A84630702B
:1015C0004FF0010A5E468BF800A0FEF7AFFD706099
:1015D0003978DFF8C8B1491E11F0FF01397002D027
:1015E00009E06FA1D9E7BBF8001021B1FEF7A2FD19
:1015F00004F06CF901E0FEF79DFD6D4D287801289F
:10160000FCD1FEF793FD70603978491C3970FEF704
:1016100091FD68A00BF012F8E079217A303800EBE8
:10162000800209EB4202114488F80510617AA27A1F
:10163000303901EB810109EB4101114488F80610B2
:10164000E17A227B303901EB810109EB4101114440
:1016500088F8071094F839104846303994F83A2041
:1016600001EB810100EB41011144A8F8011094F84D
:10167000371094F83820303901EB810100EB41013B
:10168000114488F8031094F8351094F83620303956
:1016900001EB810100EB4100104488F8040094F84C
:1016A000300094F8322094F831108DE80700294872
:1016B00094F82F3094F82E20543030A1044608F0CE
:1016C00031F8204609F076F83D4A3E4BFEF749FFD7
:1016D000C8F85A00C8F85E101E49012308220831D4
:1016E00008F10100FFF7F2FD0020287086F801A044
:1016F000FEF71CFD70603978491E11F0FF0139704A
:1017000007D1BBF8001021B1FEF714FD04F0DEF89C
:1017100001E0FEF70FFD21462BA00AF08FFFD8F85D
:101720005A20D8F85E3009B02AA0BDE8F04F0AF080
:1017300085BF00004101002038010020A8000020E2
:101740004750474741204F4B20200D0A0000000022
:10175000863E0020243E0020256325632563256303
:101760002563256325632563256325630000000049
:101770002563256325632563256325632563256329
:1017800025632563256300007B14AE47E17A843F1F
:10179000506F736974696F6E656400006C0000209F
:1017A0004E6F7420506F736974696F6E65640000CA
:1017B000420100204750524D43204F4B2000000073
:1017C0006F1283C0CAA1FD3FCBD9B6C8A3BA257397
:1017D000200D0A00CBD9B6C8D6B5A3BA252E3366DC
:1017E000200D0A0038B5FEF7A1FC104C2178491CE9
:1017F0002170FEF79FFC69460D4802F049FF6946DB
:101800000C4802F045FFFEF791FC2178491E11F0CB
:10181000FF01217007D10849098821B1FEF78AFC30
:1018200004F054F838BDFEF785FC38BDA800002050
:10183000543D0020602D00206C0000202DE9F05F59
:10184000DFF884B09146984606460F4600240A9871
:10185000DA4600EB04155A46D5E900011B4BFEF7AA
:101860007AFE32463B46FEF7BDFF27D2D3465246AC
:10187000DFF858A0D5E900015346FEF7CBFD32460C
:101880003B46FEF7C7FF19D2D5E902015A46534637
:10189000FEF761FE4A464346FEF7A4FF0ED2D5E9A5
:1018A00002015A465346FEF7B5FD4A464346FEF747
:1018B000B1FF03D2641CE0B2BDE8F09F641CE4B247
:1018C000092CC4D30020F7E72D431CEBE2360A3F76
:1018D0002DE9F041052008F0DBFF334D2878012881
:1018E000FCD1FEF723FC314E314C70602178491C4D
:1018F0002170FEF71FFC2F496FF02F02C8790B7A79
:10190000303800EB800002EB400003442A4843716A
:101910004B7A8F7A303B03EB830302EB43033B4468
:101920008371CB7A0F7B303B03EB830302EB4303E2
:101930003B44C3714B7F8F7F303B03EB830302EB50
:1019400043033B4420F8013FCB7E0F7F303B03EB4A
:10195000830302EB43033B4483708B7E497E303923
:1019600001EB810102EB41011944C17012490123CD
:1019700008220831FFF7AAFC00202870FEF7D6FBEA
:1019800070602178491E11F0FF01217008D10B49C8
:10199000098829B1FEF7CEFBBDE8F04103F096BF00
:1019A000BDE8F041FEF7C6BB43010020380100202E
:1019B000A8000020863E0020243E00206C0000206D
:1019C00010B58AB0FEF7B2FB1B4C2178491C217080
:1019D000FEF7B0FB09A9194802F05AFE09A91848F8
:1019E00002F056FE002009A9032205900690CDE9D9
:1019F00007210C2202928021CDE90310114B042013
:101A0000CDE900030023104A10A10D4802F05EFD4D
:101A1000FEF78CFB2178491E11F0FF01217008D1DF
:101A20000D49098829B1FEF785FB03F04FFF0AB085
:101A300010BDFEF77FFBFAE7A8000020543D002010
:101A4000602D0020242E0020AD1E0008475053209A
:101A50007461736B000000006C0000202DE9F043FE
:101A600085B000268DF808608DF80C600124ABA0CD
:101A70000AF0E4FD01F062FCAC4F387802281DD07A
:101A8000ABA20021242001F0B6FE0223A94A0021C6
:101A90003C2001F037FE0223A74A0121202001F05B
:101AA00031FE0223A54A1946202001F02BFE052312
:101AB000A34A0321202001F025FE13E0A1A200216A
:101AC000142001F098FEA2A20121202001F093FE33
:101AD000A1A20221202001F08EFEA1A2032120203C
:101AE00001F089FEA14D042320220221102000953F
:101AF00001F042FC0DF110084FF4FA7900F0F2FC0D
:101B00008DF80800002005F057FB8DF80C009DF8BB
:101B10000C0018B19DF80C008DF808009DF8080025
:101B20000028EBD09DF80800012814D09DF808008B
:101B3000222810D09DF80800022812D09DF8080035
:101B400002280ED09DF80800032811D09DF8080047
:101B5000C2280DD048E0012C01D9641E04E0032402
:101B600042E0032C02D2641CE4B23DE001243BE0DD
:101B70007FA00AF063FD01F0E1FB012C04D0022CF0
:101B800011D0032C30D12DE0FFF71AFF387802284E
:101B900007D067A20121242001F02DFE0223664A0E
:101BA0000DE078A211E0FFF71DFE387802280BD077
:101BB0005FA20121242001F01EFE604A02230121C0
:101BC0003C2001F09FFD04E071A201211C2001F0E6
:101BD00012FE0022CDE900684B461146104602F085
:101BE0008BFF01E006F018F99DF8080004280FD0DB
:101BF0009DF8080090280BD09DF80800032801D11B
:101C0000032C05D19DF80800C2284BD1032C49D0E4
:101C100062A00AF013FD01F091FB3878022823D06E
:101C20000223444A0021302001F06CFD0523644A60
:101C30000121202001F066FD3DA20221202001F0BB
:101C4000DAFD02235F4A1946382001F05BFD0323C9
:101C50005D4A1946202001F055FD0223354A032133
:101C6000502001F04FFD13E058A20021242001F084
:101C7000C2FD58A20121202001F0BDFD31A20221A8
:101C8000202001F0B8FD56A20321202001F0B3FD71
:101C90000423202202211020009501F06DFB05B0E5
:101CA000BDE8F083012C04D0022C11D0032C20D1EC
:101CB00024E002222021102001F07EFB03222021BB
:101CC000102001F079FB04232022022100950DE071
:101CD00001222021102001F06FFB0322202110207F
:101CE00001F06AFB0623202204210095102001F058
:101CF00043FB8DF808608DF80C60FFE6012220217F
:101D0000102001F059FB02222021102001F054FB89
:101D10000823202206210095E8E7000020475053C1
:101D20005F536574200D0A2000000000130100209D
:101D30004750530088DC0008C8DC000808DD0008B4
:101D400048DD00084750532053657474696E67007E
:101D50004F70656E00000000436C6F7365000000FB
:101D6000475053204461746100000000FCDE00080D
:101D70002047505320636F6E6669726D200D0A20F4
:101D800000000000475053204F50454E0000000017
:101D900047505320434C4F53450000002054696D79
:101DA000655F616E645F4C616E67756167655F5307
:101DB00065742063616E63656C200D0A000000008D
:101DC00048DB0008E8DB000828DC000853455454D1
:101DD000494E470054696D6526264C6167650000D1
:101DE0004D50552053657474696E670070B586B0A8
:101DF0000121042004F0E6FF0121480404F0D6FF8D
:101E00000424ADF8104018208DF81300204E03254F
:101E10008DF8125004A93046FFF7E3FA0820ADF818
:101E200010008DF8134004A93046FFF7DAFA4FF49A
:101E3000165000900020ADF80400ADF80600ADF893
:101E40000800ADF80C000C20124CADF80A006946F1
:101E5000204607F0FBFB0121204607F0B5FB0122DD
:101E600040F22551204607F0D8FB26208DF81400BB
:101E700002208DF815008DF8165001208DF81700FE
:101E800005A801F01FFA04A00AF0D8FB06B070BD47
:101E900000080140004400404750535F55534152F1
:101EA000542066696E697368200D0A000EB541A062
:101EB00007F028FCFFF79AFF424D434EDFF80C91E4
:101EC00000270DF1080AFFF7DDFAFEF72FF9297850
:101ED000491C2970FEF72EF93078002860D03D4962
:101EE0003B480090D1F82320D1F8273051F80F0F4C
:101EF0004968FFF7A3FC0446FEF718F92978491E44
:101F000011F0FF01297007D1B9F8001021B1FEF7D7
:101F100011F903F0DBFC01E0FEF70CF934B32EA05D
:101F20000AF08CFB33480078A04203D021463148A8
:101F3000FFF7C6F800F03EF94FF00108641E08FAFA
:101F400004F802AB002241462B4801F0D9FE41467D
:101F500002AB0022294801F0D3FECDE9007A00212E
:101F60004FF4FA730F22084602F0C6FDFEF7DEF8C2
:101F70002978491C2970FEF7DDF83770FEF7D6F88E
:101F80002978491E11F0FF01297007D1B9F8001016
:101F900021B1FEF7CFF803F099FC01E0FEF7CAF893
:101FA0000022CDE9007A32231146104602F0A4FD4A
:101FB00089E7000067707320207374617274200DCC
:101FC0000A000000A8000020380100206C0000205A
:101FD000F8C90008243E00207265616479204F53DF
:101FE000466C6167506F737420746F20495344349A
:101FF0003030340008010020241E0020FC1D002089
:102000007FB504460121022004F0D0FE04EB8400D9
:102010004FF0FF3101EB4000ADF8040041F61F40E6
:10202000ADF800000024104DADF80640ADF80240B8
:102030006946284607F092F801221146284607F023
:1020400051F81D218DF80C108DF80D4003208DF8EE
:102050000E0001208DF80F0003A801F033F90021D4
:10206000284606F091FF7FBD0004004010B50B4CE0
:102070000020237859060FD52189C1F30722C943CF
:10208000C9B2914203D1100001D0190604D423F043
:10209000400121700021617010BD00007C01002012
:1020A000FEE7000038B50121082004F08BFE4FF454
:1020B000B070ADF8000010208DF803000320164C1E
:1020C0008DF8020069462046FFF78BF98021ADF8B4
:1020D000001048218DF8031069462046FFF781F96A
:1020E0000121ADF8001028208DF803006946204634
:1020F000FFF777F900F0DAF90848002141708170A4
:1021000040F6D8624260064B52101A60017064209B
:1021100000F064F838BD0000000C01402C010020E4
:10212000183E002070B5194C00260546E67000F0F8
:1021300097F800F0FFF800F093F8290AE8B200F0F1
:10214000CBF800F081F8142008F0A2FB10A00AF0F0
:1021500075FA6660124D0121284606F015FF1149F7
:1021600002E06068C82806D8D1F81C01012802D115
:10217000E0780028F5D00CA00AF060FA00F0C8F86A
:102180002846BDE87040002106F0FEBE2C0100206C
:10219000495344343030345F706C6179200D0A004B
:1021A0000008004000802142B7C5D2F4CDEAB1CF8B
:1021B000200D0A0002490120C87002A00AF03EBAB0
:1021C0002C010020495344343030345F53746F7015
:1021D000506C6179696E67200D0A00007FB5044676
:1021E0000121042004F0E2FD04EB84004FF0FF31F4
:1021F00001EB4000ADF8040041F61F40ADF80000CF
:102200000024104DADF80640ADF80240694628465E
:1022100006F0A4FF01221146284606F063FF1E21A6
:102220008DF80C108DF80D4003208DF80E00012064
:102230008DF80F0003A801F045F80021284606F0AC
:10224000A3FE7FBD0008004010B5F02000F01EF88E
:1022500002490120C1F8940110BD00000080214214
:1022600010B50A2008F014FB074C0020C4F89401B4
:10227000202004F5CA7400F009F801202060BDE8B0
:102280001040322008F0DCBA008021422DE9F041F4
:10229000104E00270546C6F89471C6F8A0713C465A
:1022A0004FF00108E80702D0C6F8988101E0C6F8AF
:1022B00098716D08C6F8A081022008F0E9FAC6F806
:1022C000A071022008F0E4FA641CE4B2082CE9D3FF
:1022D000BDE8F0810080214270B504460D46012022
:1022E00008F0AEFA2046FFF7D1FF022008F0D0FA3E
:1022F0002846FFF7CBFF022008F0CAFAE020FFF7DC
:10230000C5FF02490120C1F8940170BD008021423F
:1023100010B50A2008F0BCFA3020FFF7B7FF0449D7
:102320000120C1F89401BDE81040322008F088BABD
:102330000080214210B50A2008F0AAFA1020FFF709
:10234000A5FF04490120C1F89401BDE810403220E6
:1023500008F076BA008021420EB522A00AF06EF98C
:10236000FFF7A0FE4FF484774FF0FF38002602AD50
:10237000CDE900653B4600224146204801F0A8FB1C
:102380000028F5D00024012202FA04F1814223D171
:10239000092C0BD2611C1AA00AF050F90022CDE9D9
:1023A0000065C8231146104602F0A6FB204604F043
:1023B0004FFB092C04D202AA0021144801F0B2FFFD
:1023C0000A2C03D0112C01D0122CD1D102AA002149
:1023D0000F4801F0A7FFCBE7641CE4B2202CD3D355
:1023E000C6E70000495344343030345F7461736B86
:1023F00020207374617274200D0A0000FC1D0020FF
:102400007374613A202575200D0A0000EC1E00202F
:10241000C41E002002494CF6CC4008607047000002
:102420000030004000F012B810B545F2555000F0F1
:1024300021F8042000F012F84FF47A7000F014F83C
:1024400000F004F8BDE81040FFF7E4BF02494AF687
:10245000AA20086070470000003000400149486031
:10246000704700000030004001498860704700005C
:102470000030004001490860704700000030004013
:1024800000F5FA61800701D0002070474FF4C87052
:10249000B1FBF0F200FB121030B16420B1FBF0F29E
:1024A00000FB12100028F0D00120704708B5012170
:1024B000142004F087FC4FF46040ADF80000482081
:1024C0008DF8030069460548FEF78BFF0120ADF843
:1024D000000069460248FEF784FF08BD0010014075
:1024E0000008014070B51F4D1F4E204C286858B1A0
:1024F000D6F8000168B1D4F83C0150B1D4F83801E5
:1025000038B1D4F8340120B1D6F8000101281AD02E
:1025100026E00A2008F094F900202860D6F800018F
:1025200048B1D4F83C0140B1D4F8380138B1D4F8FE
:10253000340130B114E0012070BD022070BD0320D1
:1025400070BD042070BDD4F83C01012808D1D4F836
:102550003801012804D1D4F83401012800D12860C1
:10256000002070BD34010020000021420000224202
:1025700088B000268DF808608DF80C608DF810602A
:1025800001248DF818405FA00AF058F8FFF78EFF7D
:1025900004F0B6FD05AF604DFFF7A4FF8DF808000D
:1025A000002004F009FE8DF80C009DF80C0018B115
:1025B0009DF80C008DF808009DF808000028EBD06D
:1025C00000231A4619465548009701F00DFE9DF864
:1025D000080001281CD09DF80800222818D09DF87A
:1025E0000800022838D09DF80800022834D09DF851
:1025F0000800032840D09DF80800C2283CD09DF870
:10260000080004285AD09DF80800902856D06EE0A3
:102610009DF8100010B928788DF818002878012846
:1026200003D929783C48491E01E0092122E0FEF740
:1026300047FD287805AB093004FA00F1002238483C
:1026400001F05EFB297837A009F0F8FF9DF8100033
:10265000401C8DF810004AE09DF8100010B9287851
:102660008DF818002878092803D229782A48491CAF
:10267000DDE701212848DAE72EA009F0DFFF2878FE
:1026800005AB401E04FA00F10022254801F038FB9A
:10269000FFF790FD287805AB401E04FA00F10022F8
:1026A000264801F02DFB0022C82311461046CDE933
:1026B000006702F021FA8DF8106018E09DF8100014
:1026C00070B11FA009F0BAFF9DF818101248FEF76C
:1026D000F7FC8DF8106005AB00224FF4801103E089
:1026E00005AB00224FF000510D4801F009FB8DF8B9
:1026F00008608DF80C6005AA0021084801F012FE60
:102700004AE700004B45595F7461736B2020737476
:10271000617274200D0A000008010020741E002060
:10272000241E00206B65795F74696D653A257520FC
:102730000D0A0000636F6E6669726D00FC1D00205B
:1027400063616E63656C000038B50121082004F0F8
:1027500039FB4FF48054ADF8004010208DF8030091
:102760000320064D8DF8020069462846FEF739FE23
:1027700021462846FEF783FE38BD0000000C0140CC
:102780002DE9F0410C460546124EFDF7C1FD074606
:1027900021462846FEF772F80AD20F498F420AD323
:1027A00031462846FDF762FD2146FDF7B4FD0CE0F9
:1027B0000A498F4202DA21462846F6E73146284682
:1027C000FDF7A9FD2146FDF751FDBDE8F041FDF7FC
:1027D000C8BF00000000B443000034C3000034430D
:1027E00090B000F05FFA4FA009F028FF4FF4FA74A0
:1027F00010E000F057FA204608F022F800F002F945
:102800000EAA0DA90CA800F0CBF80BAA0AA909A8DA
:1028100000F0DFF809F0CCF80028EAD146A009F072
:102820000DFF494D00244FF496782C606C60671FB3
:1028300002AEAC602C606C6004AA06A908A8AC606B
:1028400008F0F0FF00F0DEF80EAA0DA90CA800F0C9
:10285000A7F80BAA0AA909A800F0BBF8404607F0A0
:10286000EFFF03AA05A907A808F0DCFFDDE90710C0
:10287000FFF786FF2860DDE90510FFF781FF68603C
:10288000DDE90310FFF77CFFA860052814DD686808
:10289000002800DA404205280EDA02AB00224FF48D
:1028A00000112A4801F02CFA0023CDE9004601224C
:1028B0001946184602F020F9A868B84214DA686888
:1028C000002800DA404205280EDA02AB00224FF45D
:1028D00080011E4801F014FA0023CDE900460122D0
:1028E0001946184602F008F96868002800DA4042E4
:1028F00005289FDD02AB00224FF40001134801F0D0
:10290000FFF902AB00224FF48041114801F0F8F9C1
:102910000023CDE9004601221946184602F0ECF8E2
:1029200088E700006D7075207461736B20737461AB
:102930007274200D0A0000004D505536303530209D
:102940004F4B200D0A00000024300020241E0020E0
:10295000FC1D002038B5FDF7E9FB0E4C2178491C21
:102960002170FDF7E7FB69460B4801F091FEFDF78A
:10297000DDFB2178491E11F0FF01217007D10749C5
:10298000098821B1FDF7D6FB02F0A0FF38BDFDF7A5
:10299000D1FB38BDA8000020303000206C000020A2
:1029A0007CB514460D4606466B4606223B21682040
:1029B00000F019FA00280BD1BDF8001049BA318097
:1029C000BDF8021049BA2980BDF8041049BA218027
:1029D0007CBD7CB514460D4606466B460622432157
:1029E000682000F000FA00280BD1BDF8001049BAA9
:1029F0003180BDF8021049BA2980BDF8041049BAE7
:102A000021807CBD08B56B4602224121682000F080
:102A1000EAF9BDF8000040BA00B2FDF791FE0022CD
:102A2000074BFDF710FE074A074BFDF7F3FCFDF7D8
:102A300009FF0649FDF772FCFDF793FE00B208BDE1
:102A400000407540A4703D0AD74342400000C84290
:102A500070B50D4C0025C4F89C510C48016821F05C
:102A600070610160016841F040710160C4F89851E3
:102A7000022004F5CC7407F00BFF012060600220F7
:102A800007F006FF656070BD0000214200080140AC
:102A900038B50121042004F095F9C020ADF80000FC
:102AA00010208DF803000320054C8DF802006946C4
:102AB0002046FEF796FCC0212046FEF7E0FC38BD1C
:102AC0000008014070B50D4C0026C4F89C610C480C
:102AD000016821F070610160016841F0407101609E
:102AE0000125C4F89851022004F5CC7407F0D0FEFB
:102AF0006560022007F0CCFE666070BD00002142D8
:102B0000000801402DE9F04781461748002401687C
:102B100021F070610160016841F000610160134EB5
:102B2000254627464FF00108C6F89C71022007F0A1
:102B3000AFFEC6F89C816006040ED6F8180108B1F5
:102B4000641CE4B2022007F0A3FE6D1CEDB2082D58
:102B5000EAD3B9F1000F04D0FFF77AFF2046BDE8B1
:102B6000F087FFF7AFFFF9E70008014000002142BE
:102B70002DE9F04105461248016821F070610160BD
:102B8000016841F0407101600E4E0027C6F89C714B
:102B90003C464FF00108E809C6F898016806050EA2
:102BA000C6F89C81022007F073FEC6F89C710220D3
:102BB00007F06EFE641CE4B2082CECD3BDE8F08193
:102BC000000801400000214270B50D48016821F065
:102BD00070610160016841F040710160094C0120A1
:102BE000C4F89801C4F89C01022004F5CC7407F0E5
:102BF0004FFE00252560022007F04AFE656070BD8B
:102C000000080140000021420E4810B5016821F083
:102C100070610160016841F0407101600A4C002060
:102C2000C4F89C01C4F89801022004F5CC7407F0A4
:102C30002FFE012060602060BDE81040022007F0F8
:102C400027BE0000000801400000214270B5134873
:102C50000024016821F070610160016841F00061A9
:102C600001600F4D0126C5F89861022007F010FEA3
:102C7000C5F89C61022007F00BFE07E0641CE4B27B
:102C8000FA2C03D9FFF7C0FF012070BDD5F8180159
:102C90000028F3D1C5F89C0170BD00000008014078
:102CA0000000214210B5FFF7F3FE80216B2000F0F9
:102CB0009CFA642007F0C4FD00216B2000F095FA17
:102CC000032000F05EFA002000F056FA322000F0F7
:102CD00075FA0021382000F088FA00216A2000F0FF
:102CE00084FA0021232000F080FA8021372000F0B0
:102CF0007CFA752000F05AF8682801D0012010BD38
:102D000001216B2000F071FA00216C2000F06DFAB7
:102D1000322000F053FA002010BD000010B58AB038
:102D2000FDF704FA194C2178491C2170FDF702FACD
:102D300009A9174801F0ACFC002009A9032205905D
:102D40000690CDE907210C2202928021CDE90310E3
:102D5000104B0420CDE9000300230F4A0FA10C48BB
:102D600001F0B4FBFDF7E2F92178491E11F0FF01F3
:102D7000217008D10C49098829B1FDF7DBF902F06F
:102D8000A5FD0AB010BDFDF7D5F9FAE7A8000020AF
:102D900030300020F4300020E1270008444854314E
:102DA00031207461736B00006C00002010B5044684
:102DB000FFF70AFFD020FFF7DBFEFFF747FF2046B3
:102DC000FFF7D6FEFFF742FFFFF7FEFED120FFF729
:102DD000CFFEFFF73BFF0020FFF794FE0446FFF70E
:102DE00013FF204610BD2DE9F0411C4615460F4645
:102DF0000646FFF7E9FE7006000EFFF7B9FEFFF783
:102E000025FF20B1FFF700FF0120BDE8F081384623
:102E1000FFF7AEFEFFF71AFFFFF7D6FE012000EB2B
:102E20004600C0B2FFF7A4FEFFF710FF08E0012D37
:102E30000CD00120FFF766FE6D1E04F8010BEDB209
:102E4000002DF4D1FFF7E0FE0020DEE70020F1E7DF
:102E50002DE9F04385B000258DF808508DF80C5011
:102E600001249AA009F0EAFB00F068FA9B4E307842
:102E7000022818D003239A4A0021182000F042FCAF
:102E80000223984A0021482000F03CFC0223964A85
:102E90000121202000F036FC0223944A194620200C
:102EA00000F030FC0EE092A20021142000F0A3FC00
:102EB00092A20121202000F09EFC92A2022120205B
:102EC00000F099FC914F042320220221102000974A
:102ED00000F052FA0DF110084FF4FA79FFF702FBF7
:102EE0008DF80800002004F067F98DF80C009DF8BB
:102EF0000C0018B19DF80C008DF808009DF8080032
:102F00000028EBD09DF80800012814D09DF8080097
:102F1000222810D09DF80800022812D09DF8080041
:102F200002280ED09DF80800032811D09DF8080053
:102F3000C2280DD045E0012C01D9641E04E0022412
:102F40003FE0022C02D2641CE4B23AE0012438E0F3
:102F50006FA009F073FB00F0F1F9012C02D0022CF4
:102F60002FD10FE0FFF7DAFE3078022808D00323D4
:102F70005B4A0121182000F0C5FB02235A4A0EE0EB
:102F800068A212E0FFF7E6FC307802280CD0032399
:102F9000534A0121182000F0B5FB544A02230121B5
:102FA000482000F0AFFB04E061A201211C2000F0EA
:102FB00022FC0022CDE900584B461146104601F094
:102FC0009BFD9DF80800042810D09DF8080090286B
:102FD0000CD09DF80800032808D09DF80800C228EE
:102FE00004D0012C4CD0022C6AD158E053A009F037
:102FF00025FB00F0A3F93078022823D00223394AB8
:103000000021302000F07EFB0523504A01212020C2
:1030100000F078FB4EA20221202000F0ECFB0223FE
:103020004C4A1946382000F06DFB03232C4A194600
:10303000202000F067FB02232A4A0321502000F0E1
:1030400061FB13E044A20021242000F0D4FB44A241
:103050000121202000F0CFFB44A20221202000F01B
:10306000CAFB23A20321202000F0C5FB0423202259
:1030700002211020009700F07FF905B0BDE8F08331
:1030800002222021102000F097F903222021102095
:1030900000F092F904232022022100970DE0012282
:1030A0002021102000F088F903222021102000F0B8
:1030B00083F90623202204210097102000F05CF9F8
:1030C0008DF808508DF80C5008E700002047505349
:1030D0005F536574200D0A200000000013010020DA
:1030E00028DC000888DC0008C8DC000808DD0008CF
:1030F0004D50552053657474696E67004F70656E4E
:1031000000000000436C6F7365000000FCDE0008E7
:10311000206D707520636F6E6669726D200D0A20D8
:10312000000000004D5055204F50454E000000005B
:103130004D505520434C4F5345000000204D5055F5
:10314000202063616E63656C200D0A0048DB000877
:1031500047505300E8DB000853455454494E47009C
:1031600054696D6526264C61676500004750532001
:1031700053657474696E6700C006010E1C2000F070
:1031800034B8C006010E1B2000F02FB8BC2801D3B4
:10319000012110E0622801D302210CE02A2801D38A
:1031A000032108E0142801D3042104E00A2801D3F4
:1031B000052100E006211A2000F017B810B50446DA
:1031C0004FF47A70844201D9044602E0042C00D204
:1031D0000424B0FBF4F0401EC1B2192000F005F841
:1031E0006008BDE81040FFF7D1BF70B50C4605463A
:1031F000FFF7EAFCD020FFF7BBFCFFF727FD50B933
:103200002846FFF7B5FCFFF721FD2046FFF7B0FC8D
:10321000FFF71CFD18B1FFF7F7FC012070BDFFF7A9
:10322000F3FC002070BD2DE9F0411D4616460C460A
:103230000746FFF7C9FC7806000EFFF799FCFFF779
:1032400005FD60B92046FFF793FCFFF7FFFC002463
:103250000CE0285DFFF78CFCFFF7F8FC20B1FFF7CE
:10326000D3FC0120BDE8F081641CE4B2B442F0D389
:10327000FFF7CAFC0020F5E7FEE70A460021AFF39E
:10328000008010B500231C46641C41EA0323042C73
:10329000FAD310F0030404D109E0521E00F8011B18
:1032A000641C22B1042CF8D301E008C0121F042AC8
:1032B000FBD202E000F8011B521E002AFAD110BD19
:1032C0007047000030B50F23C27801780125F2B1B4
:1032D000144A126801F1E02102F4E062C2F5E062F2
:1032E000120AC2F10404D3404278A24084781C4000
:1032F0001443220181F80024007800F01F018D4062
:103300004009800000F1E020C0F8005130BD01F01C
:103310001F0085404809800000F1E020C0F880517E
:1033200030BD00000CED00E002490843024908608E
:10333000704700000000FA050CED00E070B50025B4
:1033400005F1B000C0B2002100F086F90021084666
:1033500000F082F90021102000F07EF90024012104
:10336000002000F079F9641CE4B2802CF7D36D1CC6
:10337000EDB2082DE4D370BD2DE9F0471F4690460D
:103380000E4682460025DDF8209011E03146504679
:1033900000F07DF9544607E019F8050001216D1C85
:1033A00000F05AF9641CE4B24445F5D3761CF6B239
:1033B000BE42EBD3BDE8F0872DE9F0415700FDB2E6
:1033C00088460646BF1C1CE005F1B000C0B20021D3
:1033D00000F042F9102040EA1610002100F03CF9FC
:1033E00006F00F00002100F037F9344605E0012116
:1033F000002000F031F9641CE4B24445F7D36D1CA1
:10340000EDB2AF42E0D8BDE8F08100002DE9F04117
:1034100005461448016821F470610160016841F4B7
:1034200040710160104E0027C6F8AC713C464FF069
:103430000108E809C6F8A8016806050E022007F091
:1034400027FAC6F8AC81022007F022FAC6F8AC7160
:10345000022007F01DFA641CE4B2082CE9D3BDE891
:10346000F0810000040C01400080214270B50D483D
:10347000016821F470610160016841F440710160EC
:10348000094C0120C4F8AC01C4F8A801042004F5DB
:10349000D47407F0FDF900252560042007F0F8F941
:1034A000656070BD040C0140008021420E4810B5DB
:1034B000016821F470610160016841F440710160AC
:1034C0000A4C0020C4F8AC01C4F8A801042004F59B
:1034D000D47407F0DDF9012060602060BDE8104081
:1034E000042007F0D5B90000040C014000802142FF
:1034F00070B513480024016821F47061016001680F
:1035000041F4006101600F4D0126C5F8A861022059
:1035100007F0BEF9C5F8AC61022007F0B9F906E082
:10352000641CE4B2FA2C02D9FFF7C0FF03E0D5F81F
:1035300028010028F4D10020C5F8AC0170BD0000BE
:10354000040C01400080214208B50121082003F04D
:1035500039FC4FF44060ADF8000010208DF80300F6
:1035600003208DF8020069463A48FDF73AFFC8206B
:1035700007F066F90021AE2000F06EF80021084641
:1035800000F06AF80021102000F066F800214020C9
:1035900000F062F80021B02000F05EF800218120E8
:1035A00000F05AF80021FF2000F056F80021A12079
:1035B00000F052F80021A62000F04EF80021A820CB
:1035C00000F04AF800213F2000F046F80021C82012
:1035D00000F042F80021D32000F03EF80021084618
:1035E00000F03AF80021D52000F036F800218020C4
:1035F00000F032F80021D82000F02EF8002105203C
:1036000000F02AF80021D92000F026F80021F1204E
:1036100000F022F80021DA2000F01EF8002112202C
:1036200000F01AF80021DB2000F016F8002130200D
:1036300000F012F800218D2000F00EF80021142077
:1036400000F00AF80021AF2000F006F8FFF776FE40
:1036500008BD0000000C014070B50C460546FFF7A0
:1036600005FF7820FFF7D2FEFFF742FF0CB14020A4
:1036700000E00020FFF7CAFEFFF73AFF2846FFF7F9
:10368000C5FEFFF735FFBDE87040FFF70FBF10B56F
:103690000446B031C8B20021FFF7DEFF102040EA37
:1036A00014100021FFF7D8FF04F00F00BDE8104010
:1036B0000021FFF7D1BF2DE9F04180464806060EF4
:1036C0001D46174631464046FFF7E1FF002407EB51
:1036D00045150121285DFFF7BFFF641CE4B2102CE3
:1036E000F7D3761CF1B24046FFF7D1FF002428192A
:1036F0000121007CFFF7B0FF641CE4B2102CF6D36C
:10370000BDE8F0812DE9F0411D4617468846064682
:10371000002409E006EB0410C0B223463A464146B5
:10372000FFF7C9FF641CE4B2AC42F3D3BDE8F081FB
:103730002DE9F04180464806070E203A0024D5B214
:103740004046B8F17F0F03D900207F1C8046FFB2AE
:103750003946FFF79CFF0F4E04EB05100121305C4A
:10376000FFF77AFF641CE4B2082CF5D37F1CF9B292
:103770004046FFF78CFF002404EB05103044012184
:10378000007AFFF769FF641CE4B2082CF4D3BDE8AB
:10379000F081000034DF00082DE9F04700261D46C7
:1037A000904689460746344621E0281B401EC1B298
:1037B0000A2008F03BFFB8FBF0F00A21B0FBF1F261
:1037C00001FB120026B9691E8C4201DA30B10126D4
:1037D0003030C2B207EBC400C0B203E007EBC40054
:1037E000C0B220224946FFF7A3FF641CE4B2AC42FA
:1037F000DBD3BDE8F0872DE9F04117460E460446BD
:1038000000250CE031462046FFF792FF0834E4B271
:10381000782C02D90024B61CF6B26D1CEDB27A5D8C
:10382000002AEFD1BDE8F0810EB577A008F006FFC1
:10383000FFF78AFEFEF788FF05F078F9DFF8DC91E4
:10384000DFF8DC810025DFF8DCA14FF4847B02AFD8
:103850000126CDE9005700225B46511E724800F058
:1038600037F90028F5D0002406FA04F181427DD111
:1038700000231A4619466D48009700F0B5FC142C39
:1038800003D202A96A4800F003FF092C03D9172CC0
:1038900001D0182C01D1CAF8B051142C21D8002223
:1038A00080211046FFF788FD012280210020FFF7CC
:1038B00083FD022280210020FFF77EFD092C01D824
:1038C00004F080FDA4F10A000A281ED299F8000035
:1038D000022815D00523574A00212020FFF712FFA8
:1038E00013E0192CEED01D2CECD0002280211046C4
:1038F000FFF762FD012280210020FFF75DFDE1E777
:103900004DA200211420FFF776FF1D2C03D1FFF7F5
:1039100015FD04F0CFF8A4F11900032802D82046C1
:1039200004F0D4FB192C0AD2142C04D0204604F045
:103930000BFF142C03D898F8000004F071FD0A2C3A
:1039400002D3142C31D051E0092C2ED80023CDE91C
:10395000005705221946184601F0CEF899F80110D3
:103960004846012903D0417861B115E046E098F856
:1039700000204146092A03D209782948491C09E058
:10398000457004E098F800204146012A20D90978C2
:103990002348491EFDF794FB00231A46194629487F
:1039A000009700F021FC04F00DFDFCF7BFFB264C56
:1039B0002178491C2170FCF7BDFB03F07BFBFCF771
:1039C000B5FB2178491E11F0FF01217002D009E0FA
:1039D0004670D1E71D49098821B1FCF7ABFB01F026
:1039E00075FF01E0FCF7A6FB19480570CAF8B06145
:1039F00002AA00210D4800F095FC2AE7641CE4B2FD
:103A0000202CFFF431AF24E74F4C45445F746173C1
:103A10006B20207374617274200D0A001301002062
:103A20000801002000802142241E0020741E002076
:103A3000CC37002068D7000853656C65637420504C
:103A40006F733A00EC1E0020A80000206C000020DC
:103A500019010020704700002DE9F0410446184884
:103A600090460F4600781D4610B142F6E16025E011
:103A700014B3FCF75BFB134E3178491C3170FCF733
:103A800059FB1148C4E900070027C4E9088704F17D
:103A9000080001F007FD204601F00AF90B490888EB
:103AA000401C0880FCF742FB3178491E3170FCF75E
:103AB00041FB2F80BDE8F08145F6C3501880F9E73F
:103AC00060000020A8000020464C41477C000020F8
:103AD0002DE9FF4F05468BB08548DDE91864007875
:103AE0001F46894610B146F2AE10F2E0ADB148F281
:103AF0000101781A8F4229D019DC40F20111A7F296
:103B000001108F4222D00BDC012F1FD0022F1DD0BD
:103B1000042F1BD0082F16D118E045F6C350D8E06B
:103B2000012813D0032811D007280CD10EE0B0F5DE
:103B3000807F0BD0F4DDA0F58070013806D002281C
:103B400004D0062802D045F62560C2E069492868FD
:103B5000884202D045F6C450BBE0F80501D50120EB
:103B600000E0002080464FF0000B0EB1C6F800B018
:103B700007F00F010991FCF7D9FA09995E4A4FF055
:103B8000010E012934D0022938D0042902D0082995
:103B90007ED123E0296A01EA090ACA4524D011E04E
:103BA00021EA0A0135E0554A1268C2F884A00EB134
:103BB000696A3160FCF7BEFAA4F800B050460FB055
:103BC000BDE8F08F390426D5FCF7B4FA46F2B01000
:103BD0007FE0FCF7AFFA46F663507AE0296A01EA23
:103BE00009035FEA030AEDD0B8F1000FDBD0D7E795
:103BF000296A29EA010ACA4506D0E3E7296A29EABF
:103C000001035FEA030ADDD0B8F1000FCBD041EA2F
:103C10000A012962C7E711780029DAD1924682F8B1
:103C200000E0FCF787FA0D9800903B464A4629468B
:103C300001A801F02DF8FCF779FA9AF80010491E56
:103C40008AF80010FCF776FA00F0D2F9FCF76EFA69
:103C50002A4B1A6892F8351051B1012922D0022955
:103C600030D0032926D0FCF765FA46F62E6030E006
:103C70000EB1116C3160A4F800B019685F46B8F15C
:103C8000000FD1F884602DD00999012927D000E0D8
:103C900005E0022923D004291ED008291CD0FCF7F6
:103CA00049FA50E70EB1116C3160FCF743FA46F265
:103CB000A9100EE00EB1C6F800B0FCF73BFA47F2CF
:103CC000D92006E00EB1116C3160FCF733FA45F6ED
:103CD000C2502080002072E7296AB14301E0296ABE
:103CE00031432962FCF726FA2780304667E7000057
:103CF00060000020464C4147A8000020FC00002046
:103D00002DE9FF411546884606001C460DD07DB1C1
:103D1000012D0DD0B5F5004F0AD06FF40040C5421B
:103D200006D045F62560188019E045F6C350FAE73D
:103D3000104F3068B84202D045F6C450F3E7FDF7A3
:103D400017FA03460C48007868B1CDE90234CDE992
:103D5000008500231A463146384601F0C9F8002094
:103D600004B0BDE8F0812A4641463046009400F098
:103D7000BDFFF5E7464C414760000020024800685F
:103D8000002800D0004770474C00002010B50446C2
:103D900000F0BEF8464800220A2102704548027031
:103DA0004548027045480260454802604548027037
:103DB0004548027045480270454802604548026027
:103DC000454802604548027045480068B0FBF1F084
:103DD000444908604449086830B14448006818B153
:103DE000096804C0491EFCD1414802604148026094
:103DF0004148026041480260414802604148026017
:103E0000414802604148027001F01EFC01F0BAFC1A
:103E1000204600F05FFF2088002847D1204601F0AF
:103E200017FA2088002841D1204601F035FA208871
:103E300000283BD1204601F0B7FA2088002835D170
:103E4000204601F02DFC208800282FD1204601F0CB
:103E5000CFFD2088002829D1204601F0DDFF2088F1
:103E6000002823D1204601F067F9208800281DD1C1
:103E7000204601F009F82088002817D1204602F0DA
:103E80006FFB2088002811D1204601F023FF2088F5
:103E900000280BD1204602F0B7FB2088002805D16E
:103EA00000F0F4FEBDE81040FFF7D4BD10BD0000E7
:103EB0006000002061000020A8000020FC0000201D
:103EC000000100208E0000208F00002090000020C4
:103ED0009C000020A0000020A4000020B0000020D2
:103EE000C8DE0008AC000020A0DE00089CDE000850
:103EF0004000002044000020480000204C0000202A
:103F0000500000205400002058000020DE00002057
:103F100030B5094C0020094B0246216801E004C17C
:103F2000401C1D68A842FAD32068054900EB8500B3
:103F3000001F086030BD00009CDE0008A0DE000805
:103F40000401002005480078012805D104490878BB
:103F5000FA2801D2401C0870704700006100002060
:103F600060000020194810B5007801282DD1FCF719
:103F7000DDF817490446087810B3401E10F0FF0022
:103F800008701DD113480078D0B901F04BFB1249DD
:103F90000870124900EB400051F8200010490860F9
:103FA0001049096888420BD050F8901F491C0160E5
:103FB0000D480168491C01600C494FF080500860B1
:103FC0002046BDE81040FCF7B5B810BD61000020E8
:103FD00060000020A80000208F000020B018002002
:103FE00000010020FC000020D400002004ED00E0CF
:103FF000164810B50078002826D11548007800280A
:1040000022D1FCF793F8044601F00CFB114908702B
:10401000114900EB400051F8200010490860104998
:10402000096888420BD050F8901F491C01600D4868
:104030000168491C01600C494FF08050086020461F
:10404000BDE81040FCF776B810BD0000600000200D
:10405000A80000208F000020B018002000010020E0
:10406000FC000020D400002004ED00E070B5044600
:104070001048007810B146F6625019E00E480078FA
:10408000012802D045F6896012E00C4D2878FA2804
:1040900002D345F209200BE0FCF748F806462878E1
:1040A000401C287001F036FC3046FCF743F8002035
:1040B000208070BD6000002061000020A80000206A
:1040C0002DE9F04116460C460746FCF72FF80B4940
:1040D0000025012F01D00D7001E001220A7008496E
:1040E0000CB10C6005E0074A0A231268B2FBF3F238
:1040F0000A60FCF71FF83580BDE8F081B0000020B1
:10410000AC000020C8DE000870B5044615480078F1
:1041100010B146F6655023E013480078012802D01C
:1041200045F689601CE0114E307870B1FBF7FEFF58
:1041300005463078401E10F0FF00307008D0284649
:10414000FBF7F8FF46F663500AE046F6645007E0D6
:1041500001F0EEFB2846FBF7EDFFFFF749FF0020DB
:10416000208070BD6000002061000020A8000020B9
:104170002DE9F041044618481746884600781D4648
:1041800010B142F6E16025E014B3FBF7CFFF134E08
:104190003178491C3170FBF7CDFF276200271048AA
:1041A0006762C4E9000804F1080001F07BF92046C9
:1041B00001F00CFC0B490888401C0880FBF7B6FF97
:1041C0003178491E3170FBF7B5FF2F80BDE8F081D3
:1041D00045F6C3501880F9E760000020A8000020D1
:1041E00053454D41B80000202DE9F04706464948A7
:1041F00088B01C460078109D91468A4610B146F260
:10420000AE100AE03EB1100009D0B2F5004F06D062
:1042100045F6256001E045F6C35028805BE03E4846
:104220003168814202D045F6C450F6E7002704B158
:104230002760FBF77BFFD6F82080B8F1000F0BD08A
:10424000A8F10108C6F820800CB1716A2160346AB7
:10425000FBF770FF2F8054E05FEA094108D5FBF7B8
:1042600069FF46F2B0102880404608B0BDE8F087EC
:104270002A490A7822B1FBF75DFF46F66350CCE786
:104280008846012188F80010FBF754FF53460622A8
:104290003146684601F094F8FBF748FF98F80010A3
:1042A000491E88F80010FBF745FFFFF7A1FEFBF75A
:1042B0003DFF02461A48016891F8350068B10128AF
:1042C00010D002281FD0032812D046F62E60288076
:1042D0001046FBF72FFF0020C7E70CB1086C2060E9
:1042E0002F800AE00CB1086C206046F2A91003E0B0
:1042F00004B1276047F2D92028801046346AFBF7C2
:1043000019FF2046B1E70CB1086C206045F6C25099
:10431000F2E700006000002053454D41A800002056
:10432000FC0000202DE9FF410C46060015460DD08B
:104330007CB1B4F5007F0CD0B4F5004F09D0B4F5D2
:10434000024F06D045F6256010801AE045F6C350AE
:10435000FAE7124F3068B84202D045F6C450F3E78E
:10436000FCF706FF02460E48007870B10020039566
:104370000090CDE90142034602463146384600F03E
:10438000B7FD04B00020BDE8F08104B02B46214603
:104390003046BDE8F04101F037BB000053454D41C8
:1043A0006000002070B50F4D0446287818B145F61E
:1043B0008A60208070BD01F035F90B4908700B4907
:1043C00008700B4900EB400051F8200009490860D3
:1043D0000949086001202870FCF726FE43F6992061
:1043E000E7E70000610000208F0000208E00002021
:1043F000B018002000010020FC0000202DE9F04151
:104400000746FBF793FE234900250D6022490D80E6
:1044100022490D8022490D6022490D6022490D601C
:1044200022490D6022490D81FBF784FEFBF77EFED9
:1044300020490C6815E0FBF779FEC4F8B45044F845
:10444000785F06462563A561A582E5826562A5625F
:10445000FCF78EFE44F8200FA4F134008581646AD5
:104460003046FBF767FE002CE5D1FBF75FFE1249F3
:104470000C6803E0FBF75AFEA585A469FBF75AFE1A
:10448000002CF7D101F0A0FF02F08CF93D80BDE8CF
:10449000F0810000740000206E000020BE000020AB
:1044A000D0000020E4000020EC000020A00000204C
:1044B000A4180020D80000209400002002480068C2
:1044C000002800D000477047500000202DE9FF4F22
:1044D00083B004466148DDE91785DDE9109700786F
:1044E000DDF854A0139E10B147F24A102AE04CB1F7
:1044F000059850B167B15A48006886420BD246F61B
:1045000030601FE047F2AD101CE047F24F1019E099
:1045100046F62F6016E01298B04202D346F631609C
:1045200010E046F27320B9F1400F0BD25FEA0901A7
:1045300003D0B9F13F0F02D008E04A4900E04A49F0
:104540008C4203D0288007B0BDE8F08F204601F0F0
:1045500073FC4FF0000BA5F800B05FEAC8700AD0FA
:104560005FEA887007D5384600215A4601E004C04A
:10457000491CB142FBD31298CDE9006807EB8005D6
:10458000DDE905012B463A4600F004FA0599A162DF
:104590000699E1620499216284F83790C4F854A026
:1045A000A56020605FEA0A003AD0A06516986762AD
:1045B000A6636060A4F83C800020594604EB8002AA
:1045C000401CD16710F0FF00F8D004F1640014998A
:1045D00000F0A0FE204600F053F8FBF7A7FD234DA6
:1045E0002978491C2970FBF7A5FD94F8370001F0E4
:1045F00037F8204601F00CF9204601F0DFFB1C499A
:104600000888401C08801B48007801281AD0FBF756
:104610008DFD2978491E11F0FF01297003D00CE0AF
:1046200015480068C1E71549098831B1FBF782FDDB
:1046300007B0BDE8F04F01F049B907B0BDE8F04F51
:10464000FBF778BDFBF772FD2978491E2970FBF74F
:1046500071FD07B0BDE8F04FFFF7CABC6000002055
:10466000C4DE0008E01700201C170020A80000206E
:10467000DC00002061000020AC0000206C00002065
:1046800002490968002900D008477047400000200F
:1046900070B504463D480D46007810B147F24E1003
:1046A0000AE03B48844202D147F24C1004E039480A
:1046B000844203D147F24D10088070BD2CB9FBF73E
:1046C00035FD35490C68FBF735FDFBF72FFD334E03
:1046D0003178491C3170FBF72DFD94F8360008281D
:1046E0003ED2DFE800F004080C0C1C080C0C20463D
:1046F00001F0C2F813E0204601F04AFE0FE0204628
:1047000001F046FE94F83400072808D2DFE800F0F4
:104710000704070404040400204600F0F5FE04F139
:10472000640000F0DDFD204600F03EF8204601F078
:1047300057FB1B490888401E0880204601F07CFB7F
:10474000FF2084F83600FBF7F1FC3178491E317008
:10475000FBF7F0FC00202880BDE87040FFF748BC64
:10476000FBF7E4FC3178491E11F0FF01317007D1ED
:104770000C49098821B1FBF7DDFC01F0A7F801E045
:10478000FBF7D8FC46F62D60288070BD6000002045
:104790001C170020E0170020FC000020A8000020CB
:1047A000DC0000206C00002002490968002900D0CC
:1047B000084770474400002002490968002900D0DA
:1047C00008477047480000202DE9F04782464948D5
:1047D00014460F4600781D4610B146F2AE1005E0B3
:1047E00037B1B7F5004F03D045F62560188037E0A4
:1047F000002604B12660FBF799FCDFF8FC808146B7
:10480000D8F80000416CD1B1491E47468846416442
:104810000CB1006C2060FCF7ABFC39680A6C801AA4
:10482000C1F8A400D1F8A820824201D2C1F8A800A2
:104830004846FBF77FFC2E804046BDE8F0873804F1
:1048400005D54846FBF776FC46F2B01007E02B4F43
:10485000387838B14846FBF76DFC46F6635028803F
:104860000020EAE7012038704846FBF763FC00218E
:1048700053460722084600F0A3FDFBF757FC3978A2
:10488000491E3970FBF756FCFFF7B2FBFBF74EFCF5
:10489000D8F800108146474691F8350030B101281C
:1048A00016D003281AD046F62E601BE074B1086CAF
:1048B0002060FCF75DFC39680A6C801AC1F8A4001E
:1048C000D1F8A820824201D2C1F8A8002E800AE0C7
:1048D0000CB1086C206046F2A91003E004B1266018
:1048E00047F2D92028803868446C4846FBF722FC00
:1048F0002046A2E760000020FC000020A800002065
:104900002DE9F0410546214816460F4600781C4621
:1049100010B147F2591007E046F2D52027B11EB179
:10492000FBF704FC1DB104E01880BDE8F0811849D4
:104930000D684FF00008296841B195F83C10C9078F
:104940000DD0FBF7F7FB0020696A14E0FBF7F2FBE0
:10495000C7F8008047F25210C6F8008007E0FBF766
:10496000E9FBC7F8008047F25410C6F800802080A9
:10497000DBE7401C091D0A68002AFAD03860A96BE1
:10498000081A3060A4F80080CFE700006000002023
:10499000FC00002010B5029C02EB84024FF08074F2
:1049A00042E90204124842F80C0DA2F108004FF04F
:1049B00012344FF0033260E80A244FF002324262B0
:1049C000C0E907134FF011318161D10041616110DD
:1049D00001619100C1604FF0073181604FF00631F5
:1049E00041604FF0053140F804195100016010BDDD
:1049F000BD600008114810B5006800B18047FCF7A1
:104A0000B7FB0F490F4A09681368994209D0D1F8DA
:104A10009820821AC1F89420D1F89C402244C1F811
:104A20009C20094AC3F89800D1F8B430106883423A
:104A300001D2C1F8B4000020106010BD5400002065
:104A4000FC00002000010020A40000202DE9F0411E
:104A5000064626480D461446007810B147F27520E8
:104A600030E0234F387810B146F663502AE045B164
:104A7000022D06D0042D05D0082D02D045F6256064
:104A800020E0EEB1FBF752FB3978491C3970FBF797
:104A900051FBDFF8608001212346D8F800002A4648
:104AA00080F83610314601F007FC208868B1FBF72A
:104AB0003DFB3978491E3970BDE8F041FBF73ABB40
:104AC00047F27E201080BDE8F081D8F8000000F0A9
:104AD000D3FEFBF72BFB3978491E3970FBF72AFB15
:104AE000FFF786FA00202080EDE70000600000203C
:104AF000A8000020FC0000202DE9F0474B4D164691
:104B0000DDE908242D7815B147F2752088E0DFF83B
:104B100020A19AF8005015B146F6635080E012F0DB
:104B20000E0547F27E2945F6256C05D0022D03D0EF
:104B3000042D05D0082D2AD113B90EB901B9E0B35F
:104B400032F01E0700D001270FBBC2F3001247F25C
:104B5000792847F2782C4FF47A773AB142F20F7203
:104B6000914212D9A4F80080BDE8F087BB4202D37D
:104B700047F27B2054E03B2E02D947F27A204FE0E7
:104B80003B29EFD8632802D804E0B84202D3A4F846
:104B900000C0E9E7274A4FF4FA7CC1EB0111126823
:104BA000BCFBF2FC63445343B3FBF7F34FF4616780
:104BB000784300EB8100304400E033E000FB023634
:104BC00086B3FBF7B3FA9AF800105746491C8AF8E7
:104BD0000010FBF7AFFADFF8608001212346D8F818
:104BE00000002A4680F83610314601F065FB208827
:104BF00040B1FBF79BFA3978491E3970BDE8F047A0
:104C0000FBF798BAD8F8000000F036FEFBF78EFAF2
:104C10003978491E3970FBF78DFAFFF7E9F9002062
:104C20002080A1E7FFE7A4F800909DE76000002046
:104C3000A8000020C8DE0008FC00002000B585B0F8
:104C400000F01CF8FCF794FA04AA002103920091EA
:104C5000CDE9011006480749002300781A4600EB09
:104C6000400001EB8001044800F042F905B000BDAE
:104C70008E000020B01800205449434B02480068C1
:104C8000002800D0004770475800002070470000FF
:104C900030B4064C029D246844F8802F0022238102
:104CA00062602B4630BC012200F08ABBFC00002071
:104CB0000023074A05A14361C161116819B18161EF
:104CC0004861106070478361FBE70000200000002E
:104CD00078000020034A00211160034A11800180FE
:104CE00070470000780000207C0000202DE9F0478C
:104CF0009A4690460D460446089EFBF717FA014671
:104D00005FEA080022D0012807D0B0F5004F1DD07F
:104D10006FF4004218EB020F12D1206AA843C4E9D5
:104D2000080A208A04F108054FF0000988B1394FBC
:104D30003878401C38700846FBF7FCF92D6841E0D4
:104D40000846FBF7F7F945F625605FE0206A28433F
:104D5000E5E70846FBF7EEF9A6F80090206ABDE803
:104D6000F08790F888106D6801F00F01012918D0C4
:104D700002291ED004290AD008290DD0FBF7D6F944
:104D80003978491E11F0FF01397033D03AE0216AB9
:104D9000D0F88020114009E0216AD0F8802011402D
:104DA0000BE0D0F88010236A0A4699438A4205D066
:104DB00007E0D0F88010226A914311B1524600F00A
:104DC0002DF815B1A8680028CBD1FBF7AFF93978D9
:104DD000491E3970FBF7AEF95FEA084001D4FFF7CE
:104DE00007F9FBF7A3F9246AFBF7A4F9A6F80090EA
:104DF0002046B4E70849098821B1FBF79BF900F088
:104E000065FD01E0FBF796F943F6FF2030800020B6
:104E1000A5E70000A80000206C00002070B5002568
:104E2000C0F8841080F8355080F83450044602648D
:104E300090F8360008280ED2DFE800F00D0D0404CB
:104E40000D0D0A0A204601F0CDF884F8365002E034
:104E5000042084F836002046BDE8704000F054BBC2
:104E6000074C084DFBF762F92168491C216029684D
:104E7000491C2960FBF75EF9FEF780FFF2E70000AE
:104E80005C000020C000002000B50E4A89B000215F
:104E900011600B2205910691CDE907200A480B4AC3
:104EA0000B4B006812681B680292CDE903013F209A
:104EB000CDE900030023074A07A10C48FFF706FBD2
:104EC00009B000BD5C0000207CDE000878DE000830
:104ED00074DE0008614E000875432F4F532D494979
:104EE000492049646C65205461736B001C170020D5
:104EF0002DE9F05F1E46DDE90AAB90460F4681467C
:104F00000D9CFBF713F91D491D4A054608881288B8
:104F100090422BD2401C80B208801A490A888242F3
:104F200000D20880184A1068C0F80090C0E90278E2
:104F30000682C0F814A0A0F818B00C99C1614068AE
:104F40001060124801210181114901604160002077
:104F500000F086FB0F48007808B10F490870002068
:104F600020802846BDE8F05FFBF7E4B80B480188D5
:104F7000491C018044F25360F2E700006C000020FD
:104F80006CDE00086E00002064000020B0180020D5
:104F9000E01700208E00002090000020700000200C
:104FA0003EB5374C374A02AB206801688D1A9142F2
:104FB00045D015DC344A89182DD0344A891822D0BE
:104FC000334A891832D0334AD14208D1C169CDE978
:104FD0000013038B028AC168806800F08DFF3EBD1C
:104FE0002D4969181DD02D4A891823D02C4AD14249
:104FF000F5D1C169CDE90013038B028AC1688068CD
:1050000000F05AFB3EBD0093028BC3694169806882
:10501000FFF76CFE3EBD018BC269806800F0F4FCB6
:105020003EBD8068194600F0EBFF3EBD018BC269B2
:10503000806822E08068194601F0D4F83EBD194826
:105040001949007800EB400001EB800000F08EFC75
:10505000206802AB0021C269144801F03BF81449F2
:105060000868401E0860E9D1124800680860FCF733
:105070007FF8024602AB00210F4801F02BF83EBD3D
:10508000680000205449434BADBAB2BE0DF90BFA8B
:10509000F2F8F7FF0006F6FF00F7FDF700FFEFFF5D
:1050A00003FE0FFE90000020B0180020741C0020AA
:1050B000F8000020F4000020381D00201A4F1B4C7F
:1050C0000025DFF86C80FBF731F806462088E8B150
:1050D0003046FBF72FF8FCF74BF80646FFF760FF6A
:1050E000FCF746F83968801B814200D23860FBF734
:1050F0001DF8D8F800205268C8F800202188491E01
:105100002180FBF717F8002DDDD0D9E709490020F1
:1051100008810860486000F0B3FA3046FBF70AF8EF
:10512000FEF766FFCCE70000740000206C00002052
:1051300068000020B0180020F0B52F492F4D89B02D
:1051400000240C80296831B12D4E3188022905D206
:1051500044F2546135E044F2526132E029490023BF
:10516000294F0C60296801F1200210E041F8087B0A
:105170005B1C41F8084B9BB241F8044C21F8104BE2
:1051800041F80C4C21F8084C41F81C2C2032B6F8A0
:1051900000C06345EAD32A6841F81C2C1B490A6009
:1051A0001B490A601B491D4A0C801B490C80116871
:1051B00051B11B491B4D0B682D68AB4207D244F21D
:1051C0005661018009B0F0BD44F25561F9E703234F
:1051D00005940694CDE90730086813491268002346
:1051E0000968CDE903040094CDE901210F4A10A11B
:1051F0001648FFF76BF9E5E77000002084DE000831
:105200006CDE0008740000204E4F4E456400002004
:10521000680000206C0000206E0000208CDE00087A
:1052200094DE0008C4DE000890DE0008BD500008CF
:1052300075432F4F532D49494920495352205175E9
:10524000657565205461736B00000000E017002055
:10525000034A00211160034A118001807047000059
:10526000800000208400002010B5491E8CB200216F
:1052700000F110020B4608E0E0E80223491C20F888
:10528000083B89B240F8043C1032A142F4D30360D9
:1052900043600381C36010BD70B50E4D044628689D
:1052A00080B10D4E308880B181B22868FFF7DCFFF5
:1052B0000A4829680160318881800021C18001810C
:1052C000218070BD45F21E7001E045F21D70208006
:1052D00070BD0000ACDE00086EDE0008A4180020DF
:1052E00010B5428992B10A4903680C681C60436892
:1052F0000B60CB8844891B1BCB808B88448923445B
:105300008B8000214181818101604160104610BD88
:10531000A418002001810021418181810160416048
:1053200070470000F0B54489DDE905E60589AC4227
:1053300002D346F293501EE01A4DAF88CFB12C68CD
:105340007F1ED4F800C0C5F800C0AF80EF887F1C76
:10535000BFB2EF80B5F808C0BC4500D22F814789A5
:10536000002557B1DB060CD403681C60256004607F
:105370000AE045F21D703080F0BD046001234460F6
:1053800004E043682360446043895B1C4381878950
:105390009BB29F4200D2838161602281C4F80CE0FD
:1053A0003580F0BDA4180020034A00211160034A93
:1053B0001180018070470000880000208C000020D0
:1053C0002DE9F041114D07460C4628680026194684
:1053D00080F8342080F8356000F0DAFC64B1FC60BD
:1053E00004F1080601223946286800F011F8394610
:1053F000304600F05CF802E02868C6870663204665
:105400002968BDE8F04100F01BB80000FC00002056
:1054100010B5C2870024234601630EE04B6041F8BB
:10542000103B641C41F8103BA4B241F80C3C21F83D
:10543000083C41F8043C41F8180C9442EED310BDEE
:1054400038B14268C1F8C02081688968096AC161C1
:10545000704791F83400022803D0072803D004A035
:1054600002E004A000E005A0C1F8C0007047000001
:10547000200000005461736B205100005461736B75
:105480002053656D0000000005A2C1F8C0208168AE
:1054900011B18968096A00E001A1C161704700008B
:1054A000200000000021016041600181704730B59B
:1054B0008A68002592F8374002891AB1521C02818D
:1054C00002680BE0012202814D600D60016014E072
:1054D000936893F83730A34203D85268002AF7D173
:1054E00007E032B1136853B1C1E90032596011606D
:1054F00030BD4D6042680A605160416030BD11604E
:10550000C1E90052016030BD70B50646C58F046B1D
:1055100007E0E0682146083000F009F86D1EADB2E2
:105520002034002DF5D10020F087306370BD10B518
:1055300002890024012A0BD00A6862B14B6873B15A
:1055400053601A600289521E02814C600C6010BDCB
:1055500004604460F6E74A6814600260F2E7546051
:105560004260EFE7F8B50C46054691F83610002684
:10557000069808293BD2DFE801F03A3A04043A3AA7
:10558000202094F83410032911D0E265A4F860308B
:10559000206435B12046FFF7B7FF21462846FFF7C4
:1055A00073FF204600F01EFD84F836601BE000907B
:1055B0002146284600F022F8EBE794F8341003293E
:1055C00016D0E265A4F860302064204600F0E0FECA
:1055D00035B12046FFF798FF21462846FFF754FFD4
:1055E000042084F8360084F8356084F83460F8BD0F
:1055F00000902146284600F001F8E6E770B50C6BF4
:10560000049DC98F0AE0E668864204D1C4E9040219
:105610002383E56170BD491E89B220340029F2D18F
:1056200070BD000010B50024064802E02034E4B24A
:10563000001D01680029F9D00846FAF782FD2044D0
:10564000C0B210BD380000200020044A014642F8D4
:105650002010401C0228FAD37047000038000020B8
:1056600000F01F0241090120C2F11F029040034ACD
:1056700052F82130034342F82130704738000020AF
:1056800000F01F0241090120C2F11F029040034AAD
:1056900052F82130834342F821307047380000200F
:1056A000034A00211160034A118001807047000005
:1056B00094000020980000202DE9FF4F83B01E4683
:1056C000DDE9107A93468146FAF730FDDFF8AC80C9
:1056D00098F80020521C88F80020FAF72BFDB9F842
:1056E000104009F1080024B1B10500D40124056877
:1056F0002FE0F00601D4002300E01023CDE9007A6A
:105700005A4609F120000499FFF70CFEFAF70EFD46
:1057100098F80010491E11F0FF0188F8001009D117
:105720001749098831B1FAF705FD07B0BDE8F04F18
:1057300000F0CCB807B0BDE8F04FFAF7FBBCA968A1
:105740006D685B4600974846049AFFF70BFF641E9E
:10575000A4B2002CF3D1FAF7E9FC98F80020521E0D
:1057600088F80020FAF7E6FC300401D4FEF740FC8C
:105770000021AAF8001007B0BDE8F08FA8000020B3
:105780006C0000200020074B024600EB400103EBB9
:105790008101401C0A810A60C0B24A604028F4D3EB
:1057A00070470000B018002010B5044690F837008C
:1057B000FFF756FF074994F83700097888422046DA
:1057C00003D1BDE8104000F023B8BDE8104000F060
:1057D00003B800008E00002090F837100B4A01EB50
:1057E000410102EB810100230A8942B1521C0A8166
:1057F0000A68C0E903230A68106108607047012243
:105800000A81C3600361086048607047B0180020D7
:1058100090F837100A4A01EB410102EB81010023A5
:105820000A893AB1521C0A81C3604A680261D06099
:105830004860704701220A81C36003610860F7E78E
:10584000B018002010B50189002914D0012912D008
:105850000024022907D0D0E90013CA681461C1E905
:105860000343D96005E0D0E90012C1E90342C2E96F
:105870000314C0E9002110BD70B5044690F837004C
:10588000114900EB400001EB8001D4E90320002521
:1058900040B10B895B1E0B81C26092B11061256122
:1058A000E56070BD2AB10889401E088115610A6053
:1058B000F5E70D810D604D6094F83700FFF7E0FECD
:1058C000EDE74860EBE70000B018002010B5FAF7EC
:1058D0002DFC0B4A002111700B4A0A49116051F846
:1058E000902F521C0A60094A1168491C1160084A2D
:1058F0004FF080511160BDE81040FAF71BBC00006A
:105900008F000020E017002000010020D4000020BC
:1059100004ED00E0044810B50078012803D1FBF73E
:1059200027FC0249086010BDA80000209C00002050
:105930000A4810B5007800280ED1FBF719FC084979
:105940000968401A07490A68824200D2086006497D
:105950000A68824200D2086010BD0000A800002042
:105960009C000020A0000020A400002070B5054687
:1059700012480078012820D1FAF7D8FB044628689D
:10598000B0B10F49884213D0816D11B1491E8165B4
:105990000ED1288902280BD30A48007840B928463E
:1059A000FFF750FF2868416D09B90749096881650B
:1059B0002046BDE87040FAF7BDBB70BDB0000020C6
:1059C0001C170020A8000020AC0000200023074A7C
:1059D00005A14361C161116819B18161486110601D
:1059E00070478361FBE7000020000000B400002046
:1059F000034A00211160034A1180018070470000B2
:105A0000B4000020B80000202DE9F84F1F46904652
:105A100089460646FAF78AFB318A06F108054FF0F7
:105A2000000B69B1DFF880A09AF80020521C8AF8B8
:105A30000020FAF77FFB5FEA895012D52C8911E02C
:105A4000346A611C05D0641CC6E90848FAF772FB89
:105A500026E0FAF76FFB46F6C55038800020BDE817
:105A6000F88F01242D680AE0A9686D6800231A46A2
:105A70003046CDF80080FFF775FD641EA4B2002CFF
:105A8000F2D1346AFAF752FB9AF80020521E8AF8D3
:105A90000020FAF74FFB5FEA094001D4FEF7A8FAAD
:105AA000A7F800B02046DAE7A80000201CB5784E21
:105AB000784D3068440004E020466A460021FEF735
:105AC000C5FF28780128F7D16846FEF797FC724891
:105AD00032680168914204D9B1FBF2F15FEA010B2F
